:100000000C9434000C943E000C943E000C943E0082
:100010000C943E000C943E000C943E000C943E0068
:100020000C943E000C943E000C943E000C943E0058
:100030000C943E000C943E000C943E000C943E0048
:100040000C943E000C943E000C943E000C943E0038
:100050000C943E000C943E000C943E000C943E0028
:100060000C943E000C943E0011241FBECFEFD8E04C
:10007000DEBFCDBF0E9440000C94F6000C9400003F
:100080001092C5008BE08093C4008EE08093C20084
:1000900088E18093C1008091C00080728030D9F3E4
:1000A00088E48093C6008091C00080728030D9F3CC
:1000B00085E68093C6008091C00080728030D9F3BD
:1000C0008CE68093C6008091C00080728030D9F3A6
:1000D0008CE68093C6008091C00080728030D9F396
:1000E0008FE68093C6008091C00080728030D9F383
:1000F0008CE28093C6008091C00080728030D9F37A
:1001000080E28093C6008091C00080728030D9F375
:1001100085E58093C6008091C00080728030D9F35D
:1001200083E58093C6008091C00080728030D9F34F
:1001300081E48093C6008091C00080728030D9F342
:1001400082E58093C6008091C00080728030D9F330
:1001500084E58093C6008091C00080728030D9F31E
:1001600061E282E595E623E635E740E25AE36093F3
:10017000C6006091C0006623E2F76091C6007091EE
:10018000C00070727030D9F38093C6007091C000C7
:1001900070727030D9F39093C6007091C000707285
:1001A0007030D9F32093C6007091C0007072703027
:1001B000D9F33093C6007091C00070727030D9F3DB
:1001C0004093C6007091C00070727030D9F35093A4
:1001D000C6007091C00070727030D9F34093C600B1
:1001E0007091C00070727030D9F3C1CFF894FFCF16
:00000001FF
